:060000000A128A112C28EF
:10000800F000030EF1000B1912200C1819208C189F
:100018002220710E8300F00E700E09000313831264
:10002800E13081000B11A8200800E0308F00C030BB
:100038008E000C10F30A3D20442008008C10061591
:10004800F20B08002820080006110230F200080010
:100058007A204A2051205E206C20942086010230AC
:10006800F2000A30F8003C30F90003138312A12093
:100078003B28F80B0800F3010A30F800F70A0800DB
:10008800F90B0800F7013C30F90008000313831648
:100098000F140F138F160F12080003138316811203
:1000A800811101118110011003138312E1308100C5
:1000B8000B110800031383121013901610169011D9
:1000C80090101014E0308F00C0308E000C10080023
:1000D800031383167A3092000313831292141214B6
:1000E8001217921612169215121508000317831686
:1000F800880189010313831685018601031383127E
:10010800850103138316870108108810081103134B
:10011800831287010810881008118501F40108006E
:10012800031383160C148C14031383120B178B17E9
:100138008B160B110C108C10080073080022F500A8
:1001480077080022F6000800081088107418B128F3
:100158007508870088147414080076088700081446
:040168007410080007
:100400008A018A140F3982073F3406345B344F3433
:1004100066346D347D3407347F346F3477347C3404
:0804200039345E347934713483
:04400E00D420FF3F7C
:00000001FF
